:100000000C942A000C943F000C943F000C943F0089
:100010000C943F000C943F000C943F000C943F0064
:100020000C943F000C943F000C943F000C943F0054
:100030000C943F000C943F000C943F000C943F0044
:100040000C943F000C943F000C943F000C943F0034
:100050000C943F0011241FBECFE5D8E0DEBFCDBF1A
:1000600011E0A0E6B0E0ECE6F8E002C005900D92E9
:10007000A830B107D9F70E9446030C9434040C94BD
:10008000000081B38F7781BB81B38F7B81BB81B34C
:100090008F7D81BB81B3877F81BB84B3806284BB4A
:1000A00084B3806184BB84B3886084BB84B3846080
:1000B00084BB82B3806882BB82B3806482BB82B31C
:1000C000806282BB82B3886082BB08958FEFE5E0D7
:1000D00062C095B39C6395BB95B36E2F70E021E031
:1000E00030E00E2E02C0220F331F0A94E2F7209553
:1000F000292325BB97E04BC0943009F4915020B3DD
:10010000492F50E030E0092E02C0359527950A941A
:10011000E2F720FD3BC02FEF33ECF9E021503040F7
:10012000F040E1F700C0000020B330E0092E02C02B
:10013000359527950A94E2F720FD28C0933099F46D
:1001400085E090E0861B970B26E030E0241B350B02
:10015000880F991F880F991F805A9F4FDC01A20FAB
:10016000B31F8C9117C085E090E0861B970B27E0AA
:1001700030E0241B350B880F991F880F991F805A78
:100180009F4FDC01A20FB31F8C9104C0915093309C
:1001900008F0B2CFE150E23008F09BCF08959BB356
:1001A000977F9BBB98B3987E98BB282F22952F7082
:1001B000922F9870492F50E0440F551F2770422B03
:1001C00098B3492B48BB9BB39B7F9BBB9BB394606D
:1001D0009BBBEFECF7E03197F1F700C000009BB359
:1001E0009B7F9BBBEFE0F7E23197F1F700C0000087
:1001F00098B3987E98BB982F9870292F30E0220FE3
:10020000331F8770282B88B3282B28BB8BB38B7F99
:100210008BBB8BB384608BBB8FEC97E00197F1F7BE
:1002200000C000008BB38B7F8BBBEFE0F7E2319710
:10023000F1F700C0000008958AB388608ABB8AB3D2
:1002400084608ABB87B3816087BB87B3826087BBCA
:1002500087B3846087BB87B3806187BB8FE295E7F4
:100260000197F1F700C0000082E00E94CF0088E211
:100270000E94CF008CE00E94CF0081E00E94CF005E
:1002800080E80E94CF0008959BB398609BBB98B311
:10029000987E98BB282F22952F70922F9870492F07
:1002A00050E0440F551F2770422B98B3492B48BB91
:1002B0009BB39B7F9BBB9BB394609BBBEFECF7E036
:1002C0003197F1F700C000009BB39B7F9BBB98B3B5
:1002D000987E98BB982F9870292F30E0220F331FFB
:1002E0008770282B88B3282B28BB8BB38B7F8BBBC5
:1002F0008BB384608BBB8FEC97E00197F1F700C064
:1003000000008BB38B7F8BBBEFE0F7E23197F1F707
:1003100000C0000008950F931F93CF93DF938C01CB
:10032000C0E0D0E003C00E9444012196F801EC0F28
:10033000FD1F80818111F7CFDF91CF911F910F9128
:10034000089581E00E94CF0008958AB380618ABB3E
:100350008AB380628ABB8AB380648ABB87B38068B1
:1003600087BB8BB38F7E8BBB8BB38F7D8BBB8BB3EC
:100370008F7B8BBB88B38F7788BB8FE59AEE019715
:10038000F1F700C000000895843029F49BB380E1A8
:1003900089278BBB0895833029F49BB380E289279A
:1003A0008BBB0895823029F49BB380E489278BBBF3
:1003B0000895813019F488B3805888BB089590ED72
:1003C000980F9A3018F490E0C09708958FEF9FEF40
:1003D0000895CF93DF93C0E0D0E016C081E00E9483
:1003E000C40182E00E94C40183E00E94C40184E051
:1003F0000E94C4012FEF89E698E12150804090408F
:10040000E1F700C000002196C530D1053CF3DF9133
:10041000CF910895CF93DF9384B3806484BBC0E011
:10042000D0E012C085B3806485BB2FEF83ED90E3ED
:10043000215080409040E1F700C0000085B38F7BE1
:1004400085BB0E94E9012196C530D1055CF380E7A8
:1004500090E00E948B010E94A1012FEF83ED90E3B9
:10046000215080409040E1F700C0000080E790E01C
:100470000E948B010E94A1010E94A1012FEF83ED38
:1004800090E3215080409040E1F700C0000080E7F9
:1004900090E00E948B010E94A1010E94A1012FEF18
:1004A00083ED90E3215080409040E1F700C00000D0
:1004B00080E790E00E948B010E94A1018CE790E010
:1004C0000E948B01DF91CF910895AF92BF92CF929E
:1004D000DF92EF92FF920F931F93CF93DF93FC0174
:1004E00068EE73E00E940C04CB012AE030E0B90111
:1004F0000E940C047C01CF0164E670E00E940C04B1
:10050000CB01B9010E940C048C01CF01B9010E94FA
:100510000C04A82EB92ECB01B9010E940C04EC01E9
:10052000C12CD12C38C0C7010E94F8038FE99FE08D
:100530000197F1F700C0000088B320E4282728BB0A
:10054000C8010E94F8038FE99FE00197F1F700C00E
:10055000000088B320E2282728BBCE010E94F803C0
:100560008FE99FE00197F1F700C000008BB324E012
:1005700028272BBB8A2D9B2D0E94F8038FE99FE033
:100580000197F1F700C000008BB328E028272BBBB0
:1005900095E0C90ED11C88EEC81683E0D80618F283
:1005A000DF91CF911F910F91FF90EF90DF90CF904F
:1005B000BF90AF9008950F931F93CF93DF938C015B
:1005C0008CE990E00E948B01C0E0D0E00DC0CE012C
:1005D0000E9465022FEF83ED90E321508040904010
:1005E000E1F700C000002196C017D10784F30E94F4
:1005F000A101DF91CF911F910F9108950F931F9348
:10060000CF93DF938C018CE990E00E948B01C0E0D6
:10061000D0E00FC0CE010E9465022FEF37E689E8D7
:1006200099E02150304080409040D9F700C0000050
:100630002196C017D10774F30E94A101DF91CF91D9
:100640001F910F9108950F931F93CF93DF938C0108
:100650008CE990E00E948B01C0E0D0E00DC0CE019B
:100660000E9465022AEA3AEA8AEA9AE22150304078
:1006700080409040D9F72196C017D10784F30E949B
:10068000A101DF91CF911F910F9108950E941C014C
:100690000E9441000E94E8030E94A5018DEA90E0BB
:1006A0000E948B01C12CD12CE12CF12CA12CB12C5E
:1006B00000E010E00E946600C82F8F3FD9F30E942F
:1006C000DF018A30910568F49801220F331F000F73
:1006D000111F000F111F000F111F020F131F080F12
:1006E000191FC33669F50E94A1018CEB90E00E94AE
:1006F0008B012FEF83ED90E3215080409040E1F794
:1007000000C000000E94A1018CEB90E00E948B01D0
:100710002FEF83ED90E3215080409040E1F700C03F
:1007200000000E94A1018DEA90E00E948B01C12C83
:10073000D12CE12CF12CA12CB12C00E010E0CFEF5A
:100740008C2F0E944401CF3249F40E94A10187EC12
:1007500090E00E948B01AA24A394B12CCA3249F4E0
:100760000E94A1018CED90E00E948B01EE24E394A5
:10077000F12CCD3249F40E94A10181EF90E00E945A
:100780008B01CC24C394D12CCD3309F093CF0E949C
:10079000A10121E0E216F10431F4C8010E94FE0239
:1007A0000E940A0287CF81E0C816D10431F4C80143
:1007B0000E9423030E940A027DCF91E0A916B10492
:1007C00009F078CFC8010E94DB020E940A0272CFB2
:1007D0008AB388608ABB8AB384608ABB87B380622D
:1007E00087BB87B3806487BB87B3876187BB089566
:1007F0009C0198B3987E98BB48B3C9016AE070E049
:100800000E940C049C0128703327220F331F87702D
:10081000282B242B28BB089597FB072E16F4009451
:1008200007D077FD09D00E94200407FC05D03EF4D4
:10083000909581959F4F0895709561957F4F08958C
:10084000AA1BBB1B51E107C0AA1FBB1FA617B707F6
:1008500010F0A61BB70B881F991F5A95A9F7809512
:0C0860009095BC01CD010895F894FFCFE5
:10086C003738392F3435362A3132332D63303D2B1E
:10087C0042454545454545622021210042455720CA
:10088C004245572041686D6564204D6F6873656EF5
:10089C00204245572042455720212100436F756E59
:1008AC0074696E6720446F776E2021210043686F56
:1008BC006F7365204D6F6465203A20005265737428
:1008CC00696E672E2E2E00456E7465722054696D0C
:1008DC006520496E20536563203A2000456E74658F
:1008EC00722054696D6520496E204D696E203A2046
:1008FC0000456E7465722054696D6520496E2068E0
:08090C006F7572203A20000013
:00000001FF
